:1000000012C01FC01EC01DC01CC01BC01AC051C0E2
:1000100018C017C016C015C014C013C012C011C03C
:1000200010C00FC00EC011241FBECFEDCDBF10E019
:10003000A0E6B0E001C01D92A237B107E1F712D0EF
:10004000C9C1DECF8FE187BB80E681BB1BBC1ABC78
:1000500083E88FBD85E08EBD19BE8FEF90E09BBD1C
:100060008ABD0895CF93DF938CE090E046D08FE176
:1000700087BB80E681BB1BBC1ABC83E88FBD85E0D3
:100080008EBD19BE8FEF90E09BBD8ABD66D0C49A2D
:1000900020E137E2C8ECD0E005C0CE010197F1F7CE
:1000A0002150304021153105C1F7BED020E137E2A3
:1000B000F4CF1F920F920FB60F9211248F939F933C
:1000C000EF93FF93809170009CB1E82FF0E0E05A2D
:1000D000FF4F90838F5F80937000813410F01092F7
:1000E0007000FF91EF919F918F910F900FBE0F9035
:1000F0001F90189580917000089592B989B986E093
:1001000083B988E98AB9089590917000992311F410
:1001100020E00EC020916000E0E6F0E08181819354
:1001200080E0EF39F807D1F710829150909370007A
:10013000822F08951092700008955D9BFECF0000FD
:100140008CB90895FC0105C05D9BFECF00008CB901
:10015000319680818823C1F7089588B3806A88BB6F
:1001600087B38F7587BB8FEF8FB98AE28DB980EF28
:100170008EB908958FB980EF8EB935E09BE222E009
:10018000832F8A95F1F79DB9B79BFECF822F8A9571
:10019000F1F79DB9769BF4CF85E08A95F1F78FB1A1
:1001A0009FEF9FB9BD9A08950F931F93CF93DF934D
:1001B0008C01EB01C798F80181918F018FB98EEF07
:1001C000D9DFBD988EEFD6DF2197A1F780E090E0D0
:1001D000DF91CF911F910F910895FF920F931F937D
:1001E000CF93DF938C01EB01FF24FA94BD9880EF4D
:1001F000C1DFF80181938F01C130D10511F4FFB83F
:1002000001C01FB88EEFB6DF219781F780E090E044
:10021000DF91CF911F910F91FF90089580E090E0C2
:10022000089580E090E00895C598C79AB79BFECFE7
:10023000C59A0895C598C7980895C59AC79ABF9A50
:10024000BD9A8FEF8FB98AE28DB980EF8EB908958C
:100250008091710008958EB921E09BE2822F8A95EA
:10026000F1F79DB9B79BFECF822F8A95F1F79DB923
:10027000769BF4CF81E08A95F1F78FB19FEF9FB91C
:10028000BD9A0895C79AC79BFECF81E0982F9A9593
:10029000F1F7C5988A95F1F7C798C59A779B02C080
:1002A00081E0089583E08093710080E00895C5980F
:1002B000C79AB79BFECF81E0982F9A95F1F7C59A20
:1002C0008A95F1F7759B02C081E0089584E08093E0
:1002D000710080E00895CF92DF92EF92FF920F932A
:1002E0001F93CF93DF938C01E62E90917100892F9D
:1002F000816080937100F801808180FD03C093606C
:1003000090937100BFDF882309F44DC0FE2CE801F3
:10031000CC24C394DD24DA948091710080FD02C066
:1003200081FF2EC0C79888818FB980EF94DFBD9878
:100330008EEF91DF9091710080FF09C090FF02C0A5
:1003400081E001C082E08093710080E02CC090FDCC
:1003500010C092FF0EC0F801808181608083C0923E
:10036000710090DF882319F0FE2CE80116C08AE0A6
:10037000EACF2196809171008E7F809371000DC02D
:10038000BD9880EF68DF8883F1E0FF1611F4DFB8D5
:1003900001C01FB821968EEF5EDFFA9409F0BCCF42
:1003A00086DF811181E0DF91CF911F910F91FF9046
:1003B000EF90DF90CF900895109271008CDF089538
:1003C000FC0180818E7F808384E080937100CF0167
:0803D00082DF0895F894FFCFCD
:00000001FF
