:1000000012C02AC029C028C045C026C025C09FC133
:1000100023C022C021C020C01FC0A5C094C0A1C25F
:10002000BDC21AC019C011241FBECFEDCDBF10E054
:10003000A0E6B0E0EAE8F6E002C005900D92A63630
:10004000B107D9F710E0A6E6B0E001C01D92A239D1
:10005000B107E1F760D117C3D3CF929A0895929870
:100060000895880F880F28B3982F9C71922B98BB06
:1000700098B3836E982398BB08951BBC1ABC80E28A
:1000800086BF8FE78CBF85E489BF83E08EBD82E0A9
:1000900083BF08951F920F920FB60F9211242F93D2
:1000A0003F934F935F936F937F938F939F93AF9300
:1000B000BF93EF93FF9380916700813079F5809132
:1000C0006000813071F482E0CCDF809166008F5F48
:1000D000809366008091660084308CF010926600F8
:1000E0000EC081E0BEDF8091660081508093660083
:1000F0008091660087FF03C083E080936600809153
:100100006A0090916B00019790936B0080936A0056
:10011000019697FF05C01092670002C084E0A1DF3E
:100120001DBC1CBCFF91EF91BF91AF919F918F912E
:100130007F916F915F914F913F912F910F900FBEE3
:100140000F901F9018951F920F920FB60F921124C7
:100150008F9382B3877882BB12BE8F910F900FBEB0
:100160000F901F9018951F920F920FB60F921124A7
:100170008F939F93EF93FF9380916700813059F4A1
:1001800082B3E0916600FF27E7FDF095EF59FF4F3E
:100190009081982B92BBFF91EF919F918F910F903F
:1001A0000FBE0F901F9018959091820096958091A8
:1001B0007E00981711F09923B9F580918300833060
:1001C00021F1843028F4813041F0823069F510C08B
:1001D000843001F1853041F522C09091840080E0A7
:1001E0002091850030E0822B932B9BBD8ABD089522
:1001F0009091840080E02091850030E0822B932B49
:1002000090936B0080936A0008958091840080939E
:100210006000089580918400809367000895809124
:10022000840090E09BBD8ABD08950F931F93082F13
:10023000660F642B6093820011E00AC0A9D0882366
:10024000E9F3B0D0E12FF0E0EE57FF4F80831F5F5E
:100250000117A0F71F910F9108951F93DF93CF937C
:1002600000D00F92CDB7DEB793D0833008F44CC0E6
:10027000929ACE01019663E070E0AAD08981833220
:10028000E9F0843228F4813241F08232E1F50FC086
:100290008432C1F08532B9F520C08A81882319F4EF
:1002A00060917E0002C081E060E0D3D02CC06A8102
:1002B00060937E0081E090E0D8D125C080917E00DF
:1002C000AAD021C08A816B8140E0AFDF6A816F5F75
:1002D00082E890E0E9D068DF16C08B81880F8160EA
:1002E000809382006A816F5F82E890E0DDD011E048
:1002F00007C0E12FF0E0EE57FF4F80818CD01F5FE9
:100300008A818117B0F792980F900F900F90CF913C
:10031000DF911F9108958CE187BB8CE781BB7894B6
:10032000ACDE81E490E037D081E090E096D1682F98
:1003300080937E0080E08DD090DF80916D008430CE
:10034000D8F3929A31DF10926D009298F5CF1F92F8
:100350000F920FB60F9211248F939F93EF93FF93F9
:1003600080916C009CB1E82FF0E0E259FF4F908340
:100370008F5F80936C00813110F010926C00FF91C0
:10038000EF919F918F910F900FBE0F901F90189536
:1003900080916C00089592B989B986E083B988E9A3
:1003A0008AB9089590916C00992311F420E00EC051
:1003B00020916E00EEE6F0E08181819380E0ED37E0
:1003C000F807D1F71082915090936C00822F089516
:1003D000EF92FF920F931F93CF93DF937C018B01DA
:1003E000C0E0D0E00AC080916C00882349F0DADFD9
:1003F000F701EC0FFD1F80832196C017D1079CF3F6
:10040000CE01DF91CF911F910F91FF90EF90089552
:1004100010926C0008955D9BFECF8CB9089520E08A
:1004200030E009C0FC01E20FF31FE0815D9BFECFCD
:10043000ECB92F5F3F4F26173707A4F30895FC014F
:1004400004C05D9BFECF8CB9319680818823C9F7AB
:10045000089597B3906A97BBC79AC59A882329F4E1
:1004600060937E00BD9888EA03C08FEF8FB98AE25F
:100470008DB980EF8EB908958EB93FE19BE22AE1F4
:10048000832F8A95F1F79DB9B79BFECF822F8A956E
:10049000F1F79DB9769BF4CF8FE18A95F1F78FB193
:1004A0009FEF9FB9BD9A08950F931F93CF93DF934A
:1004B000FC01162F20918000922F91609093800074
:1004C000808180FD04C023602093800003C09D7F55
:1004D00090938000C79AB79BFECF8FE1982F9A9593
:1004E000F1F7C5989AE19A95F1F7C7988A95F1F7CF
:1004F000C59AEF010FEF80918000837091F0C7984B
:1005000088818FB980EFB8DFBD988EEFB5DF80FFAF
:1005100002C080E021C0809180008E7F80938000A7
:100520000BC0BD9880EFA8DF8883113011F40FB99C
:1005300001C01FB88EEFA0DF115021961123D9F60C
:10054000C598C79AB79BFECF8AE18A95F1F7C59AFD
:100550008FE18A95F1F781E0DF91CF911F910F91A3
:1005600008951F920F920FB60F9211248F9310923D
:100570007F0010926D00BD98B79B02C0B59BFCCF69
:10058000B59902C088EF01C088EA8DB980EF8EB9B5
:100590008F910F900FBE0F901F9018951F920F9282
:1005A0000FB60F9211248F939F93EF93FF93809137
:1005B0007F00823059F1833030F4882359F0813044
:1005C00009F042C020C0843039F18430D8F0853041
:1005D000D9F528C08FB1882331F08FB186959091DD
:1005E0007E00891781F480916D009FB1E82FF0E0C3
:1005F000EE57FF4F90838F5F80936D00789B1DC0F7
:1006000081E01CC08FB188EA8DB90AC083E0809375
:100610007F00BD981FB816C085E080937F00BD980D
:1006200080E711C080916D009FB1E82FF0E0EE5798
:10063000FF4F90838F5F80936D0084E080937F00F5
:100640001FB8BD9A8EE78EB9FF91EF919F918F9160
:100650000F900FBE0F901F901895E199FECF1FBA13
:100660008EBBE09A99278DB30895262FE199FECF8E
:100670001CBA1FBA8EBB2DBB0FB6F894E29AE19A52
:0A0680000FBE01960895F894FFCF15
:06068A0001283050480079
:00000001FF
