:1000000012C02AC029C028C052C026C025C0BFC106
:1000100023C022C021C020C01FC0DDC0CCC045C24B
:100020005FC21AC019C011241FBECFEDCDBF10E0B2
:10003000A0E6B0E0E2E1F7E002C005900D92A03743
:10004000B107D9F710E0A0E7B0E001C01D92AB3ACC
:10005000B107E1F7EFD05BC3D3CF880F880F28B388
:10006000982F9C71922B98BB98B3836E982398BB62
:10007000089580917200909173009BBD8ABD84E1C8
:1000800086BF84E68CBF1092850010928200109289
:10009000770081E0809384001092800093E0909339
:1000A000810085E489BF9EBD82E083BF08951F92D1
:1000B0000F920FB60F9211242F933F934F935F939C
:1000C0006F937F938F939F93AF93BF93EF93FF9320
:1000D00080918000813009F059C08091700090912A
:1000E0007100181619060CF049C080918400813007
:1000F00071F482E0B2DF809182008F5F8093820092
:1001000090918100981750F41092820007C081E00E
:10011000A4DF8091820081508093820080918000D2
:10012000813019F580917700882331F4E0918200C5
:10013000F0E0E05AFF4F07C0813051F4E0918200B7
:10014000F0E0EC59FF4F80818093850083E00BC085
:10015000823059F4E0918200F0E0E859FF4F80814D
:100160008093850087E0809381008091700090915A
:1001700071000197909371008093700080917000DE
:1001800090917100892B21F41092800084E065DF4A
:100190001DBC1CBCFF91EF91BF91AF919F918F91BE
:1001A0007F916F915F914F913F912F910F900FBE73
:1001B0000F901F9018951F920F920FB60F92112457
:1001C0008F9382B3877882BB12BE8F910F900FBE40
:1001D0000F901F9018951F920F920FB60F92112437
:1001E0008F939F9380918000813029F482B3909106
:1001F0008500892B82BB9F918F910F900FBE0F902E
:100200001F9018950F931F93082F660F642B609310
:10021000780011E00AC0DCD08823E9F3E3D0E12FB5
:10022000F0E0E858FF4F80831F5F0117A0F71F9190
:100230000F910895EF92FF921F93DF93CF9300D019
:100240000F92CDB7DEB78CE187BB8CE781BB78948A
:1002500010DF81E490E0BFD081E090E042D2809353
:1002600096008450843718F086E68093960087B312
:10027000806A87BBC79AC59A8FEF8FB98AE28DB91A
:1002800080EF8EB982E790E090939A008093990076
:10029000019690939C0080939B0080E790E0909360
:1002A0009E0080939D0001969093A00080939F00F4
:1002B00084E890E09093A2008093A10087E790E00B
:1002C0009093A4008093A30080E890E09093A60010
:1002D0008093A5009093A8008093A7007E010894C6
:1002E000E11CF11C20917200309173008AB59BB51E
:1002F0002817390731F080917200909173009BBDEF
:100300008ABD66D0833070F3929AC70163E070E0D3
:100310007FD08981833289F0843218F48232A9F542
:1003200005C0843269F0853281F517C06A81609317
:10033000960081E090E0DDD128C0809196000BC04E
:100340008A816B8140E05EDF6A8170E06F5F7F4F82
:1003500088E790E060D17FD018C08B81880F8160E2
:10036000809378006A8170E06F5F7F4F88E790E04C
:1003700052D111E007C0E12FF0E0E858FF4F808133
:100380006AD01F5F8A818117B0F79298ABCF1F9216
:100390000F920FB60F9211248F939F93EF93FF93B9
:1003A000809174009CB1E82FF0E0EA57FF4F9083F2
:1003B0008F5F80937400813110F010927400FF9170
:1003C000EF919F918F910F900FBE0F901F901895F6
:1003D00080917400089592B989B986E083B988E95B
:1003E0008AB9089590917400992311F420E00EC009
:1003F00020918600E6E8F0E08181819380E0E53994
:10040000F807D1F71082915090937400822F0895CD
:10041000EF92FF920F931F93CF93DF937C018B0199
:10042000C0E0D0E00AC080917400882349F0DADF90
:10043000F701EC0FFD1F80832196C017D1079CF3B5
:10044000CE01DF91CF911F910F91FF90EF90089512
:100450001092740008955D9BFECF8CB9089520E042
:1004600030E009C0FC01E20FF31FE0815D9BFECF8D
:10047000ECB92F5F3F4F26173707A4F30895FC010F
:1004800004C05D9BFECF8CB9319680818823C9F76B
:100490000895C798C5988093960087B38F7587BBDA
:1004A00088EA8DB980EF8EB908951F920F920FB62A
:1004B0000F9211248F9310929800BD98B79B02C0A1
:1004C000B59BFCCFB59902C088EE01C088EB8DB911
:1004D00080EF8EB98F910F900FBE0F901F901895DF
:1004E0001F920F920FB60F9211248F939F93EF9349
:1004F000FF9380919800823021F1833030F488237B
:1005000069F0813009F069C028C0843009F43FC027
:100510008430E8F0853009F060C03FC08FB1882397
:1005200031F08FB1869590919600891799F4789B58
:1005300002C081E003C01092760084E080939800AE
:1005400048C0C59883E080939800BD9844C08FB19F
:10055000882319F088EA8DB91EC0909175009930F2
:1005600060F4E92FF0E0EE0FFF1FE756FF4F019018
:10057000F081E02D80818FB901C01FB89F5F9093FB
:10058000750082E080939800BD9AC59A04C085E00A
:1005900080939800BD9880E71FC084E08093980006
:1005A00080917600882339F48FB18093750081E0C3
:1005B000809376000EC0E0917500E93050F48FB161
:1005C000F0E0EE0FFF1FE756FF4F0190F081E02DA6
:1005D00080831FB8BD9A8EE78EB9FF91EF919F91EE
:1005E0008F910F900FBE0F901F9018958EB93FE11D
:1005F0009BE22AE1832F8A95F1F79DB9B79BFECF45
:10060000822F8A95F1F79DB9769BF4CF8FE18A9579
:10061000F1F78FB10895EF92FF920F931F93CF934D
:10062000DF93EC01162F1092AA00C79AB79BFECF5A
:100630008FE1982F9A95F1F7BD9ABF9AC5989AE1E4
:100640009A95F1F7C7988A95F1F7C59A82E0E82E56
:10065000FF24F3940FEF8091AA00813069F081307C
:1006600018F0823039F519C0888180FD03C0F092FE
:10067000AA0002C0E092AA00C79888818FB980EFD3
:10068000B5DFBD988EEFB2DF80FF04C0C79AC59A70
:1006900080E020C02196BD9A0DC0BD9880EFA6DFF6
:1006A0008883BD9A113011F40FB901C01FB821968B
:1006B0008EEF9CDF115079F6C5988FE18A95F1F79E
:1006C000BF98B79BFECF8AE18A95F1F7BD98B59B9D
:1006D000FECF81E0DF91CF911F910F91FF90EF90BE
:1006E0000895E199FECF1FBA8EBBE09A99278DB38A
:1006F0000895262FE199FECF1CBA1FBA8EBB2DBBE1
:100700000FB6F894E29AE19A0FBE01960895F89414
:02071000FFCF19
:100712000820104028305048082820301050404807
:00000001FF
